{
  "_format": "hh-sol-artifact-1",
  "contractName": "InstaDapp",
  "sourceName": "contracts/Instadapp.sol",
  "abi": [
    {
      "inputs": [
        {
          "internalType": "string",
          "name": "_cid",
          "type": "string"
        },
        {
          "internalType": "string",
          "name": "_desc",
          "type": "string"
        }
      ],
      "name": "addImages",
      "outputs": [],
      "stateMutability": "nonpayable",
      "type": "function"
    },
    {
      "inputs": [],
      "name": "count",
      "outputs": [
        {
          "internalType": "uint256",
          "name": "",
          "type": "uint256"
        }
      ],
      "stateMutability": "view",
      "type": "function"
    },
    {
      "inputs": [
        {
          "internalType": "uint256",
          "name": "",
          "type": "uint256"
        }
      ],
      "name": "images",
      "outputs": [
        {
          "internalType": "uint256",
          "name": "id",
          "type": "uint256"
        },
        {
          "internalType": "string",
          "name": "cid",
          "type": "string"
        },
        {
          "internalType": "string",
          "name": "desc",
          "type": "string"
        },
        {
          "internalType": "address",
          "name": "author",
          "type": "address"
        }
      ],
      "stateMutability": "view",
      "type": "function"
    }
  ],
  "bytecode": "0x6080604052600060015534801561001557600080fd5b506105f3806100256000396000f3fe608060405234801561001057600080fd5b50600436106100415760003560e01c8063036a30821461004657806306661abd1461005b5780638485648214610077575b600080fd5b610059610054366004610437565b61009a565b005b61006460015481565b6040519081526020015b60405180910390f35b61008a61008536600461049b565b6101cf565b60405161006e9493929190610501565b60008251116100e15760405162461bcd60e51b815260206004820152600e60248201526d09cdee840ecc2d8d2c840d0c2e6d60931b60448201526064015b60405180910390fd5b600081511161012a5760405162461bcd60e51b81526020600482015260156024820152742737ba103b30b634b2103232b9b1b934b83a34b7b760591b60448201526064016100d8565b6001805461013791610546565b60018181556040805160808101825283815260208082018781528284018790523360608401526000958652858252929094208151815591518051919492936101859390850192910190610311565b50604082015180516101a1916002840191602090910190610311565b5060609190910151600390910180546001600160a01b0319166001600160a01b039092169190911790555050565b600060208190529081526040902080546001820180549192916101f19061056c565b80601f016020809104026020016040519081016040528092919081815260200182805461021d9061056c565b801561026a5780601f1061023f5761010080835404028352916020019161026a565b820191906000526020600020905b81548152906001019060200180831161024d57829003601f168201915b50505050509080600201805461027f9061056c565b80601f01602080910402602001604051908101604052809291908181526020018280546102ab9061056c565b80156102f85780601f106102cd576101008083540402835291602001916102f8565b820191906000526020600020905b8154815290600101906020018083116102db57829003601f168201915b505050600390930154919250506001600160a01b031684565b82805461031d9061056c565b90600052602060002090601f01602090048101928261033f5760008555610385565b82601f1061035857805160ff1916838001178555610385565b82800160010185558215610385579182015b8281111561038557825182559160200191906001019061036a565b50610391929150610395565b5090565b5b808211156103915760008155600101610396565b600082601f8301126103bb57600080fd5b813567ffffffffffffffff808211156103d6576103d66105a7565b604051601f8301601f19908116603f011681019082821181831017156103fe576103fe6105a7565b8160405283815286602085880101111561041757600080fd5b836020870160208301376000602085830101528094505050505092915050565b6000806040838503121561044a57600080fd5b823567ffffffffffffffff8082111561046257600080fd5b61046e868387016103aa565b9350602085013591508082111561048457600080fd5b50610491858286016103aa565b9150509250929050565b6000602082840312156104ad57600080fd5b5035919050565b6000815180845260005b818110156104da576020818501810151868301820152016104be565b818111156104ec576000602083870101525b50601f01601f19169290920160200192915050565b84815260806020820152600061051a60808301866104b4565b828103604084015261052c81866104b4565b91505060018060a01b038316606083015295945050505050565b6000821982111561056757634e487b7160e01b600052601160045260246000fd5b500190565b600181811c9082168061058057607f821691505b602082108114156105a157634e487b7160e01b600052602260045260246000fd5b50919050565b634e487b7160e01b600052604160045260246000fdfea2646970667358221220cc25bd766839b67c97ba9fcd8372fe202578500375caa689145bb723ffe3408a64736f6c63430008070033",
  "linkReferences": {},
  "deployedLinkReferences": {}
}